:020000040800F2
:1000000000500020C9A50008059D0008099D0008B2
:100010000D9D0008119D0008159D000800000000BE
:10002000000000000000000000000000199D000812
:100030001D9D000800000000219D0008259D00086E
:1000400011A6000811A6000811A6000811A60008B4
:1000500011A6000811A6000811A6000811A60008A4
:1000600011A6000811A6000811A60008359D000879
:1000700011A6000811A60008419D00084D9D00082A
:10008000599D0008659D000811A6000811A60008EA
:1000900011A6000811A6000811A6000811A6000864
:1000A00011A6000811A6000811A6000811A6000854
:1000B00011A60008719D000811A600087D9D00088A
:1000C000899D0008959D0008A19D000811A60008C3
:1000D00011A6000811A6000811A6000811A6000824
:1000E00011A6000811A6000811A6000800000000D3
:1000F0000000000000000000000000000000000000
:0C01000000000000000000005FF808F1A3
:10010C0010B5054C237833B9044B13B10448AFF345
:10011C0000800123237010BD80040020000000002B
:10012C0048B200080C4B43B10C4810B50C49AFF366
:10013C0000800C48036823B910BD0A48036833B922
:10014C007047094B002BF7D0BDE810401847064B01
:10015C00002BF5D0184700BF0000000048B2000883
:10016C0084040020800400200000000053B94AB928
:10017C00002908BF00281CBF4FF0FF314FF0FF30A3
:10018C0001F000B9ADF1080C6DE904CE00F006F8F1
:10019C00DDF804E0DDE9022304B070472DE9F047F7
:1001AC008C460E460446089D002B50D18A421746B9
:1001BC006CD9B2FA82FEBEF1000F0BD0CEF1200C3E
:1001CC0001FA0EF620FA0CFC02FA0EF74CEA060CB9
:1001DC0000FA0EF43A0CBCFBF2F9BBB202FB19CCE0
:1001EC0009FB03FA4FEA144848EA0C46B2450AD90F
:1001FC00F61909F1FF3180F02581B24540F22281D8
:10020C00A9F102093E44A6EB0A06B6FBF2F002FB8A
:10021C00106600FB03F3A4B244EA0644A34209D9D6
:10022C00E41900F1FF3280F00B81A34240F2088107
:10023C0002383C440021E41A40EA0940002D62D007
:10024C00002324FA0EF42C606B60BDE8F0878B421F
:10025C0007D9002D55D0002185E841000846BDE89E
:10026C00F087B3FA83F1002940F08F80B34202D3B8
:10027C00824200F2FC80841A66EB03060120B4462D
:10028C00002D40D085E81010BDE8F08712B9012789
:10029C00B7FBF2F7B7FA87FEBEF1000F35D101219B
:1002AC00F61B4FEA174C1FFA87F8B6FBFCF20CFB57
:1002BC00126608FB02F0230C43EA0646B04207D94B
:1002CC00F61902F1FF3302D2B04200F2D2801A4684
:1002DC00361AB6FBFCF00CFB106608FB00F8A3B258
:1002EC0043EA0644A04507D9E41900F1FF3302D2D2
:1002FC00A04500F2B9801846A4EB080440EA02407D
:10030C009CE729462846BDE8F08707FA0EF7CEF1A0
:10031C00200326FA03F24FEA174CB2FBFCF11FFA4A
:10032C0087F80CFB112206FA0EF620FA03F301FBF8
:10033C0008F933431E0C46EA0246B14500FA0EF4A6
:10034C0009D9F61901F1FF3280F08C80B14540F2E9
:10035C00898002393E44A6EB0906B6FBFCF00CFB87
:10036C00106200FB08F99EB246EA0246B14507D975
:10037C00F61900F1FF3371D2B1456FD902383E4402
:10038C00A6EB090640EA01418FE7C1F1200722FAEA
:10039C0007F88B4048EA030326FA07F44FEA134E9A
:1003AC00B4FBFEF91FFA83FC0EFB19448E4020FAB5
:1003BC0007F809FB0CFA48EA06084FEA184646EA21
:1003CC000444A24502FA01F200FA01F608D9E41835
:1003DC0009F1FF3044D2A24542D9A9F102091C44CB
:1003EC00A4EB0A04B4FBFEF00EFB104400FB0CFC67
:1003FC001FFA88F848EA0444A44507D9E41800F128
:10040C00FF3E29D2A44527D902381C4440EA0940B2
:10041C00A0FB0289A4EB0C0CCC45C246CE4615D3EE
:10042C0012D055B1B6EB0A036CEB0E0606FA07F7C1
:10043C00CB401F43CE402F606E600021BDE8F0879B
:10044C001046F7E68946DEE64645EAD2B8EB020AE4
:10045C0069EB030E0138E4E77046D7E718468FE7DF
:10046C008146BDE7114676E702383C4444E708462E
:10047C0006E7023A3E442BE703685A004CBF43F0B0
:10048C00004323F000431844704700BF61B32DE9CB
:10049C00F84F01F1FF3A90460646D146002707EB8C
:1004AC00090404EBD4746410E50071190846FFF7D5
:1004BC00E3FFA245834605F10800304409D0FFF75D
:1004CC00DBFFC34500F1FF3005D8404509D2671C5E
:1004DC00E5E7C34505D9A74202D004F1FF39DEE7B1
:1004EC0000210846BDE8F88F08467047012807D060
:1004FC00022807D0044B00280CBF18460020704778
:10050C000248704702487047090C00080D0C00089F
:10051C00110C000830B5254B83B004468D1E73B307
:10052C0001A92846AFF3008018B301992A46FFF7BA
:10053C00ADFF0146E8B1FFF79FFF4B68A064012BAC
:10054C0011D0002B22DB081DFFF796FF0023E0647F
:10055C0023650368002B1EDBFFF78EFF0023206151
:10056C00184603B030BD052300221846226103B0A3
:10057C0030BD092300221846226103B030BD0C4B5C
:10058C000C491846C91AC9100191CFE70123081D5F
:10059C00E0642365DDE7C3F30360FFF7A7FF0028E2
:1005AC00206114BF00230923DAE700BF000000001C
:1005BC0038C40008F8C80008036810B5DA07044608
:1005CC0006D49B0700F1480009D500F057FC2368BE
:1005DC00590709D51A070ED5DB0613D510BD00F047
:1005EC0045FC23685907F5D404F1D00000F04EFC0B
:1005FC0023681A07F0D404F5A87000F04FFC2368A8
:10060C00DB06EBD404F5E870BDE8104000F08ABCC2
:10061C00036803B103441846704700BF09207047B4
:10062C00704700BF70B504460D4608E02A6C23697C
:10063C00626121462A4601209847082808D1296C76
:10064C002046FFF767FF06460028EFD00AF0F9FCBA
:10065C000728FBD13046296CFFF7E2FF281D00F07C
:10066C00F9FB00BF2DE9F04705460027ADF5727D7B
:10067C0003AC0E1D92460FCE0FC40FCE0FC40FCE7F
:10068C000FC496E80F00D5F80C80D5F8189084E8C4
:10069C000F0002AC2846216C2760FFF73BFFBAF134
:1006AC00000F074614BF0A2609267FB1A36B46F03C
:1006BC0010018DE810022A46636401202B46C047C6
:1006CC0078BB38460DF5727DBDE8F087236C4FF48E
:1006DC00F0726B6121467AA80AF0E6FC2B697AAAC3
:1006EC00294630469847889B82468DE81002314651
:1006FC0063642A462B460120C04790B94FF4F07230
:10070C007AA920460AF0D0FCBAF1080F06D1216C68
:10071C002846FFF7FFFE09260746C6E7BAF1070F82
:10072C0005D0092738460DF5727DBDE8F0873846AF
:10073C00216CFFF775FF03A800F08CFB406C704731
:10074C00F0B54FF0FF3ECB6BF9B00B640E1D01AD55
:10075C000F4604460FCE0FC50FCE0FC50FCE0FC5DB
:10076C0096E80F0085E80F00CDF800E006E023695D
:10077C006A46214698470828054608D11099204614
:10078C00FFF7C8FE0028F2D0092079B0F0BD68460A
:10079C00FFF712FF062DF7D139462046FFF742FF2F
:1007AC0030B4DD6BC160826119461D64002230BC1F
:1007BC0058E700BF70B54369C6680B6426B10122C7
:1007CC00FFF750FF0AF03DFC03690A4604460D464C
:1007DC00014602209847072807D0082803D129464C
:1007EC002046FFF71FFF0AF02CFC3046296CFFF760
:1007FC0017FF281D00F02EFBC2682AB110B4CC6B79
:10080C0000220C6410BC2DE79AE700BF704700BFB4
:10081C00836813B1014601201847704700B50429BD
:10082C0007D8DFE801F00309060909000BB90F2A04
:10083C0005D902205DF804FB01205DF804FB00EBF8
:10084C00820252681846019B1A605DF804FB00BFD7
:10085C00002310B584B003AC0A4600941946FFF788
:10086C00DDFF039804B010BD00B5042907D8DFE8FC
:10087C0001F00309060909000BB90F2A05D902205A
:10088C005DF804FB01205DF804FB019900EB82028A
:10089C000968184651605DF804FB00BF002310B5D1
:1008AC0084B004AC44F8042D00940A461946FFF7B2
:1008BC00DBFF04B010BD00BFF0B54FF0FF3ED36BB3
:1008CC00ADF50F7D1364151D17AC07460E460FCD05
:1008DC000FC40FCD0FC40FCD0FC495E80F0084E8E3
:1008EC000F00CDF858E012E00C2116A86A46FFF76D
:1008FC00D5FF314616A8B84778B9049B16AA6946A5
:10090C00082098470528044608D0092805D02699C0
:10091C006846FFF7FFFD0028E6D0092416A8FFF76C
:10092C004BFE20460DF50F7DF0BD00BF2DE9F04FBD
:10093C00CC6C914622688BB004340D460792089417
:10094C0000F0030B1E46002B60D10323120207920A
:10095C008DF825608DF824302B6DBBF1020F08BF8C
:10096C00AC6B13F0010340D1019300F00803039327
:10097C00D4F80080B8F1000F39D0022E43D0B4F86F
:10098C00008067880434AB6C27F0010A0F214846BD
:10099C009A44FFF75DFF824533D828F001039A444F
:1009AC0050452CBF002001207F0007F0020708F003
:1009BC00010847EA0807012F3ED035D3022F1CD17E
:1009CC00236823F000420292BBF1000F76D128B1CC
:1009DC00039900297ED0002A00F0A680002B77DB3B
:1009EC00029B013304EB8304C2E700230193022E24
:1009FC003EDDFFF713FE002840D009200BB0BDE808
:100A0C00F08F0020D0E767680834BCE7022BA3DC2A
:100A1C000221130C8DF825301204DBB204EB830495
:100A2C0007928DF8241097E7BBF1000F02D0002835
:100A3C0040F0BD8004349BE7BBF1000F25D1A8B179
:100A4C0094E80C00991C4FEAD272D6D005F15801EB
:100A5C000133069100F0A380201DFFF7D9FD06ABF2
:100A6C000146284609F066FE002877D108347FE756
:100A7C0007A9484600F0F0FA0028BED1019B002BD4
:100A8C005CD108200BB0BDE8F08F0D2148462F6AD1
:100A9C00FFF7DEFE8742E9D1AB6A9C42E6D12046E5
:100AAC00FFF7EAFC0F2102464846FFF7F7FE4846DF
:100ABC002A460021FFF7F2FE07209FE70D2148464A
:100ACC002F6AFFF7C5FE874258D02368002B87DAC0
:100ADC00043485E7029B3BB305F15803271DCDF881
:100AEC0010B0DDF80C80A346DDF808A01C46059676
:100AFC0002E0B245B04616D038460694FFF788FDA2
:100B0C0006AB01460022284609F014FE08F1010646
:100B1C0004370028EDD0029B5C464345DDF810B04D
:100B2C00059ED2D100E05C4648460D21FFF790FEB1
:100B3C00069B2862AC626B6206205FE70F21484679
:100B4C00FFF786FE0E2102464846FFF7A7FE4846F1
:100B5C00294A0F21FFF7A2FE07204FE707460D2178
:100B6C004846FFF775FE022F28621DD12B46069AC8
:100B7C0043F82C2F6B62AC6206203FE7AB6A9C42B9
:100B8C00A3D1042200270299A318A962EF622A6359
:100B9C006B632368BB421DDB0123019320E74846AE
:100BAC000D21FFF755FE2862069B6B62E3E720469A
:100BBC00FFF762FC04340646AC63284609F018FEC5
:100BCC0000283FF41AAF484632460F21FFF766FE65
:100BDC00072013E70846013004EB8000FFF74CFCBC
:100BEC000F2102464846FFF759FE48462A46394629
:100BFC00FFF754FE072001E799AF0008002395E6A4
:100C0C00012393E6022391E6F0B50446C5B004290E
:100C1C000DD8DFE801F055030C310F00012B4FEA22
:100C2C00124695B264D17219102A40F29D800220AE
:100C3C0045B0F0BD002BFAD1102AF8D82368D8069D
:100C4C0000F1C88022AE30460192012500F074F903
:100C5C000023A06B019A05FA03F1114203D001683D
:100C6C00043046F823100133042BF4D1A063304632
:100C7C0000F058F90020DBE7032BD8D1150C97B204
:100C8C00EB19102BD3D823681E0700F1B78022AEC6
:100C9C00304600F025F9ED00A06B5FB1043D034632
:100CAC00711900EBC70053F8042B834241F8042F51
:100CBC00F9D11846A063304600F0F0F80020B7E7F1
:100CCC00002BB4D10127A56B96B2201D07FA03F1B6
:100CDC00314203F1010302D0296804350160102B65
:100CEC0000F10400F2D112F400503BD1A5639FE750
:100CFC00052B9CD17719202F99D80F2E66D92F460A
:100D0C00002D3AD12A460027002AA06B72DD00EB99
:100D1C00C202014644A800EBC6008C3851F8045BB3
:100D2C00914240F8045FF9D1084697B1102E324633
:100D3C0038BF102244A901EBC202A2F5C47279009B
:100D4C00043A00EB810150F8045B884242F8045FDE
:100D5C00F9D1012B48D00F2EA16333D917B102A8BA
:100D6C0000F094F8002063E70F2E3FF660AF0027E9
:100D7C002268D10717D4002F60D02268510745D4C0
:100D8C00012B4DD00F2E06D822A8019300F07AF833
:100D9C00019B002FB6D002A8019300F07BF8019BB9
:100DAC00C6F11002B0E722F00101052B216001937E
:100DBC0020463BD022F0030240F8482B00F05AF8B2
:100DCC00019BD8E722A800F059F8C7E7102FCED91D
:100DDC00103FCDE723F01003236004F5E870019277
:100DEC0000F0AAF8019A2DE70431A16322A800F0C3
:100DFC003DF8B7E7002F99D10146AAE723F0080385
:100E0C00236004F5A87000F06BF840E7204622F050
:100E1C00040240F8D02B019300F03CF8019BAFE7A3
:100E2C0022A8019300F026F8019BB9E741F00201DA
:100E3C0040F8481B00F026F8019B9CE7012B03D0DF
:100E4C000F2E3FF65FAF9FE722A8019300F012F838
:100E5C00019B57E700F1340191E838009C46A64607
:100E6C004CF8045D90E8FF0FE54600BD90EC210BBB
:100E7C00704700BF80EC210B704700BF90EC200B3B
:100E8C00704700BF80EC200B704700BFD0EC200BEC
:100E9C00704700BFC0EC200B704700BFF0EC0201A4
:100EAC00F0EC0211F0EC0221F0EC0231F0EC02411A
:100EBC00F0EC0251F0EC0261F0EC0271F0EC02810A
:100ECC00F0EC0291F0EC02A1F0EC02B1F0EC02C1FA
:100EDC00F0EC02D1F0EC02E1F0EC02F1704700BF53
:100EEC00E0EC0201E0EC0211E0EC0221E0EC02315A
:100EFC00E0EC0241E0EC0251E0EC0261E0EC02714A
:100F0C00E0EC0281E0EC0291E0EC02A1E0EC02B139
:100F1C00E0EC02C1E0EC02D1E0EC02E1E0EC02F129
:100F2C00704700BFB0FC0181B0FC0191B0FC01A185
:100F3C00B0FC01B1704700BFA0FC0181A0FC019185
:100F4C00A0FC01A1A0FC01B1704700BFEC4600B5AC
:100F5C002DE900502DE9FF1F4FF000032DE90C0087
:100F6C0001A9FFF7EDFBDDF840E012B0704700BFC0
:100F7C00EC4600B52DE900502DE9FF1F4FF00003A2
:100F8C002DE90C0001A9FFF715FCDDF840E012B0CB
:100F9C00704700BFEC4600B52DE900502DE9FF1F4E
:100FAC004FF000032DE90C0001A9FFF725FCDDF83B
:100FBC0040E012B0704700BFEC4600B52DE9005080
:100FCC002DE9FF1F4FF000032DE90C0001ABFFF7DB
:100FDC00E7FBDDF840E012B0704700BFEC4600B50F
:100FEC002DE900502DE9FF1F4FF000032DE90C00F7
:100FFC0001AAFFF761FCDDF840E012B0704700BFBA
:10100C00027A1AB9437A43B9B02070470368013A9F
:10101C0002721A020260180E704703214268013BEB
:10102C0010B443721368141D01721A0244600260FA
:10103C0010BC180E704700BF002300B585B003AA82
:10104C00009219460C22FFF7E9FB039805B05DF8F6
:10105C0004FB00BFF0E700BF2DE9F04306460F4646
:10106C004FF0000885B03846FFF7CAFFB028044699
:10107C0023D0050627D400230DF10C091946850051
:10108C000D22CDF800903046FFF7C8FBEDB2039B64
:10109C00600605F104054CBF5D1BED1800230D2205
:1010AC001946CDF8009030460395FFF7DDFB384626
:1010BC00FFF7A6FFB0280446DBD1B8F1000F00F013
:1010CC00948000201CE000F0F003802B5CD0902B6F
:1010DC0019D0A02B2CD0B02B3ED0C02B6BD000F055
:1010EC00F803D02B0BD100F00702013242F400229E
:1010FC00052301213046FFF787FD0028B3D00920D6
:10110C0005B0BDE8F08300F00D030D2BF7D00023E4
:10111C0003AD00F00F02194600953046FFF77EFB39
:10112C000023009519460D223046FFF79DFB9AE7E8
:10113C00C3434FF47F6203F007031A4100230107F6
:10114C0002F47F6248BF42F4804219463046FFF7F2
:10115C005BFD0028D3D186E7B12857D0B22868D0E0
:10116C00B32800F0958000F0FC03B42BC7D001230A
:10117C0000F007021A4442F4002219463046FFF7E9
:10118C0043FD0028BBD16EE73846FFF739FF240238
:10119C000443B4F5004FB2D000232401A2B2194687
:1011AC003046FFF731FD0028A9D114F4004F18BFC9
:1011BC004FF0010857E7C6287DD0C72800F086807D
:1011CC0000F0F803C02B00F09480C82800F09F803A
:1011DC00C92894D13846FFF713FF020300F00F0023
:1011EC0002F470220130024382E703AC43460E2224
:1011FC00414600943046FFF711FB009430464346BD
:10120C000F224146FFF730FB404679E73846FFF79F
:10121C00F7FE00283FF473AF10F0F0037FF46FAFCC
:10122C00024619463046FFF7EFFC00287FF467AF03
:10123C0019E700230DF10C090D221946CDF8009089
:10124C003046FFF7EBFA3846FFF7DAFE02064FF0AE
:10125C0002040CD5039B00F07F00A04003443846E9
:10126C000393FFF7CDFE030604F10704F2D4002329
:10127C00039900F07F02A24001F501718C18CDF8A2
:10128C00009019460D2230460394FFF7EDFAEAE67A
:10129C003846FFF7B5FE0123010300F00F0001F4FF
:1012AC007021C2180A4330461946FFF7ADFC0028DE
:1012BC007FF425AFD7E63846FFF7A2FE010300F016
:1012CC000F00032301F47021421CEBE73846FFF7B3
:1012DC0097FE00283FF413AF10F0F0037FF40FAF2C
:1012EC00024604213046FFF78FFC00287FF407AF3D
:1012FC00B9E6032300F00F02013242F42022194612
:10130C003046FFF781FC00287FF4F9AEABE6384697
:10131C00FFF776FE00F0F00200F00F0310320133FD
:10132C0043EA0232E4E600BF30B503240D46C36C39
:10133C0085B05A688DF80C40DC791202083301A98B
:10134C00284601928DF80D400293FFF785FE05B0FB
:10135C0030BD00BF08B5FFF77DFE806C08BD00BF37
:10136C0008B5FFF777FEC06CC37900EB830008303B
:10137C0008BD00BF08B509F064FE00BF08B5FFF753
:10138C00F9FF00BF704700BF10F8012B11F8013BAB
:10139C00012A28BF9A42F7D0D01A7047034613F897
:1013AC00012B002AFBD1181A0138704710B50446DE
:1013BC00074A084B1068A3FB0030800900F0E8FADC
:1013CC00214600224FF0FF3000F08EFA002010BDB5
:1013DC0010040020D34D6210074A08B5136803208F
:1013EC0043F01003136000F06DFA0020FFF7DEFFEE
:1013FC0008F038FC002008BD00200240024A1368A7
:10140C0001331360704700BF9C040020014B186827
:10141C00704700BF9C04002030B583B00190FFF7EB
:10142C00F5FF0546019C631C18BF0134FFF7EEFF66
:10143C00401BA042FAD303B030BD00BF002800F01F
:10144C008880F8B5836A04463BB323689A68D10751
:10145C0009D4A26A12F0100225D0A36A012043F02D
:10146C001003A362F8BD9A6822F001029A60FFF79C
:10147C00CDFF054623689A68D207EAD5FFF7C6FF69
:10148C00401B0228F6D9A36A43F01003A362E36A57
:10149C0043F00103E362A36ADFE7C36280F8243000
:1014AC0005F0E4FBD1E7A16AE569606821F4885195
:1014BC00A66821F00201E76841F002012843B6F565
:1014CC00807FA16240EA470522D0012E53D061698A
:1014DC00012922D05868324920F469405860986834
:1014EC00014029439960D96A2E4821F470010A43BE
:1014FC00DA629B68184085422DD00120A36A23F044
:10150C00120343F01003A362E36A0343E362F8BDE2
:10151C006269012A32D14FF480722FB3A16A41F073
:10152C002001A162E16A41F00101E16258681C49A5
:10153C0020F4694002435A609A68B6F5807F01EA4C
:10154C00020141EA0501996024D12269013A120590
:10155C00C9E7012070470020E062A36A23F003036F
:10156C0043F00103A362F8BDA169013942EA41329B
:10157C0042F40062DAE76269012ACCD05968084A61
:10158C0021F4694141F48071596099680A402A43F9
:10159C009A60DAE7012E18BF0022A4D1D5E700BF6C
:1015AC00FDF7E1FFFE0E1FFF2DE9F043554B0468DC
:1015BC0083B09C4200F0828003F580639C427DD016
:1015CC0090F82430012B03D1022003B0BDE8F08346
:1015DC000023904601220193A3680F46D9070646C3
:1015EC0080F8242021D4484B48491B68A268A1FBF1
:1015FC00031342F001029B0CA2600193019B2BB1DF
:10160C00019B013B0193019B002BF9D1FFF7FEFEDF
:10161C00814605E0FFF7FAFEA0EB0900022857D837
:10162C003468A56815F00105F4D0B36A384A23F480
:10163C00706323F0010343F480739442B36254D07B
:10164C00B36A23F48013B36263685A0505D5B36A91
:10165C0023F4405343F48053B36200256FF002022D
:10166C00B36A306A13F4805318BFF36A294918BF60
:10167C0023F00603F36286F82450274B8162274936
:10168C00C36201632260A168434641F480713A460B
:10169C00A16004F14C0100F0DFF928463268936830
:1016AC0003F46023B3F5602F93680CBF43F4A003DD
:1016BC0043F48013936003B0BDE8F083114B5B6877
:1016CC0013F4702F3FF47CAF012003B0BDE8F0831E
:1016DC000120B36A86F8245043F01003B362F36A16
:1016EC000343F36203B0BDE8F083064B5A6812F46F
:1016FC00702FA5D0B26A42F48012B2625B685B05AF
:10170C00ABD5A4E7002401401004002083DE1B436A
:10171C0000280140311700088517000895170008AC
:10172C00704700BF436A9A6A12F0500F1ED19A6A32
:10173C00196842F4007210B59A628A6802F4602249
:10174C00B2F5602F03D01846FFF7EAFF10BDDA6838
:10175C00002AF8D19A6A22F480729A629A6AD204A8
:10176C00F1D49A6A42F001029A62ECE71B6A1B6B95
:10177C00184700BF704700BF08B5406AFFF7FAFF73
:10178C0008BD00BF704700BF08B5436A9A6A184687
:10179C0042F040029A62DA6A42F00402DA62FFF71F
:1017AC00F1FF08BD0246002070B492F8243083B0DB
:1017BC00012B019054D001204B681F26062B82F878
:1017CC002400146824D803EB8303053B656B08687D
:1017DC009E4025EA060500FA03F32B4363630928B0
:1017EC0026D9072600EB40038D681E3BE1689E401E
:1017FC009D4021EA06032B43E360A0F11003012B6B
:10180C0025D90020002382F8243003B070BC704727
:10181C000C2B03EB830327D80868233B256B9E40D6
:10182C0025EA060500FA03F32B4309282363D8D8CD
:10183C000725896800EB40062369B540B14023EACF
:10184C0005030B432361A0F11003012BD9D81A4BCC
:10185C009C4214D0936A012043F020039362D1E799
:10186C00022003B070BC7047413BE56A08689E409B
:10187C0025EA060500FA03F32B43E362AFE7A368FE
:10188C001B02BED4A368102843F40003A360B8D194
:10189C000A4B0B491B68A1FB03139B0C03EB830343
:1018AC005B000193019B002BABD0019B013B01938F
:1018BC00019B002BF9D1A4E7002401401004002067
:1018CC0083DE1B434FF6FF01064A0002D36800F487
:1018DC00E0600B4043F0BF6343F400330343D36039
:1018EC00704700BF00ED00E0184B70B4DC68C4F327
:1018FC000224C4F10706042E04F1040328BF0426B5
:10190C00062B17D90125033CA540013D2A40012394
:10191C00B340013B1940A140002841EA02010CDB15
:10192C00090100F16040C9B200F5614080F8001374
:10193C0070BC704700221446E9E7054B00F00F001D
:10194C000901C9B20344197670BC704700ED00E080
:10195C00FCEC00E0012300F01F01034A40098B401E
:10196C0042F82030704700BF00E100E0BFF34F8F1A
:10197C000549064BCA6802F4E0621343CB60BFF31F
:10198C004F8F00BFFDE700BF00ED00E00400FA053B
:10199C000138B0F1807F0DD230B4F0250022072140
:1019AC00054B064C586084F82350104630BC9A60A6
:1019BC00196070470120704710E000E000ED00E076
:1019CC00044A042813680CBF43F0040323F00403F7
:1019DC001360704710E000E0704700BF08B5FFF7D8
:1019EC00FBFF08BD00282ED00346F0B400240126CE
:1019FC008768426805681549C0683A43144F294402
:101A0C0002431869A7FB01715F6902433A439F695E
:101A1C0028683A43DF6920F47F503A4320F03000C5
:101A2C000C4F090902438900DF63204619642A60C0
:101A3C009C62DC621C635C639C6383F8204083F8CB
:101A4C002160F0BC70470120704700BFF8FFFDBF5C
:101A5C00CDCCCCCC00000240F0B590F82040012C4D
:101A6C000CD0012590F8214080F82050AC4208D0D1
:101A7C000022022380F820201846F0BD02231846CD
:101A8C00F0BD00264FF0020C056886632E68076CCB
:101A9C00D0F83CE0BC4026F00106476880F821C035
:101AAC002E60CEF804406B60C36A102F0BBFAA6087
:101ABC00A960E960EA604BB12B6843F00E032B6020
:101ACC002A68002342F001022A60D5E72B6823F034
:101ADC0004032B602B6843F00A032B60F0E700BF74
:101AEC0038B590F82130022B04D0042201248263F3
:101AFC00204638BD03681D491A688B4222F00E023D
:101B0C001A601A6822F001021A6021D0184A934216
:101B1C001CD0143293421FD0143293421FD0143273
:101B2C0093421FD0143293420CBF4FF480134FF0EA
:101B3C008073012100240F4D426B6B6080F82110E3
:101B4C0080F8204032B19047204638BD1023F0E792
:101B5C000123EEE71446CBE74FF48073E9E74FF42B
:101B6C008053E6E74FF48033E3E700BF0800024000
:101B7C001C000240000002400422F0B4C66B016C51
:101B8C00346803688A4022421D681FD06F071DD538
:101B9C001A68920603D41A6822F004021A603F4AAB
:101BAC0093425DD01432934262D01432934269D086
:101BBC00143293426CD0143293425BD01432934261
:101BCC000CBF4FF480034FF080634AE002228A403E
:101BDC00224222D0AF0720D51A68910606D40121E3
:101BEC001A6822F00A021A6080F821102B4A9342DC
:101BFC002CD01432934243D01432934245D0143239
:101C0C00934248D01432934237D0143293420CBFD3
:101C1C004FF400134FF0007319E008228A4022425F
:101C2C001CD02A071AD5012200271C68056B24F04A
:101C3C000E0402FA01F11C607160826380F82120AD
:101C4C0080F8207055B12B46F0BC184702230021B8
:101C5C00134C826A636080F820103AB9F0BC70476C
:101C6C0004230F49C26A4B60002AF7D0F0BC10471E
:101C7C004023F6E74FF48023F3E74FF40033E6E715
:101C8C002023E4E74FF48063EBE74FF40073DEE7C7
:101C9C004FF48043E5E74FF40053D8E708000240C7
:101CAC00000002402DE9F04F4FF0000885B043468C
:101CBC006FF01F06DFF8DCE1DFF8DCC16F4F00903E
:101CCC0005E00133102B06F1040600F08980012297
:101CDC000C689A401440A242F3D14D68122D00F0CA
:101CEC00A38000F28C80022D00F0A58040F2818050
:101CFC00032D00F09D80112D02D1CA6802F1040859
:101D0C00FF2C70D8009A4FEA830A914612680F256F
:101D1C0005FA0AFB22EA0B0208FA0AFA42EA0A025C
:101D2C00C9F80020D1F804A01AF0805FC9D0DEF801
:101D3C00189023F0030249F00109CEF81890DEF850
:101D4C00189002F1804209F00109CDF80C9002F5CF
:101D5C00803203F00309DDF80CB04FEA8909D2F8A0
:101D6C0008B005FA09F52BEA0500019000986045CA
:101D7C0077D0434DA84277D0424DA84279D0424DFE
:101D8C00A8420CBF4FF0030B4FF0040B0BFA09F9F0
:101D9C0001981AF4803F40EA090595603A6803F10E
:101DAC00010314BF2243A2433A607A681AF4003F3D
:101DBC0014BF2243A2437A60BA681AF4801F14BF7E
:101DCC002243A243BA60FA681AF4001F14BF1443EA
:101DDC0022EA0404102BFC6006F104067FF477AFB2
:101DEC0005B0BDE8F08F0098B246426800F10409D6
:101DFC008DE7A5B1012D83D1D1F80C8080E7234864
:101E0C0085420CD01BD92248854208D000F5803081
:101E1C00854204D0DFF884904D457FF471AF8D6816
:101E2C00BDB94FF004086BE7CA6802F10C0867E70C
:101E3C004FF0000864E7CA6802F1080860E7DFF8B1
:101E4C0060904D45EBD009F580394D457FF458AF86
:101E5C00E5E70098012D0CBF026142614FF00808C4
:101E6C004EE74FF0000993E74FF0010B0BFA09F91D
:101E7C008EE74FF0020B0BFA09F989E700040140D9
:101E8C00000C014000100140001401400000211022
:101E9C000000311000100240000801400000221028
:101EAC000000111000297CD02DE9F04F002283B0E6
:101EBC006FF01F074FF001094FF00F0A4FF0040BA2
:101ECC00DFF8EC8039E0054604689600DB430AFA3B
:101EDC0006FE24EA0E040BFA06F634432C60C468A2
:101EEC0022F003051C4005F18045C46005F58035E2
:101EFC0002F00304AE68A4000AFA04FE06EA0E0619
:101F0C000196284EB04242D006F58066B04240D0D1
:101F1C00254EB04240D0254EB0420ABF4FF0030CC4
:101F2C000BFA04F40CFA04F4019EA6420FD0013211
:101F3C0031FA02F307F1040726D009FA02F30B4039
:101F4C00F5D0FF2BBFD93E464468051DBEE7AC68F3
:101F5C00013224EA0E04AC60D8F8004004371C406F
:101F6C00C8F80040D8F804401C40C8F80440D8F821
:101F7C0008401C40C8F80840D8F80C402340C8F86A
:101F8C000C3031FA02F3D8D103B0BDE8F08F002445
:101F9C00CAE709FA04F4C7E74FF0020C0CFA04F490
:101FAC00C2E77047000801400010014000140140D6
:101FBC00000401408368194214BF012000207047BF
:101FCC0002B9090401617047F8B504460D4616467E
:101FDC0023685869C04310F0020026D05A69510595
:101FEC0011D500216FF48067042620251A68012082
:101FFC0042F400721A605F61266484F83C1021631D
:10200C0084F83D50F8BD6A1CE3D045B9002320226A
:10201C00236384F83C3084F83D200320F8BDFFF79F
:10202C00F5F9801B8542D3D2F0E7F8BD2DE9F041DC
:10203C00884616461F460546006882B0046844F47C
:10204C0080740460089C621C41D14369DB07FCD599
:10205C0008F0FE010161631C14D043699B0714D482
:10206C0043695A053FD4002C00F09380FFF7CEF95A
:10207C00099BC01A8442C0F08C802868EBE7436946
:10208C005A0530D443699907F9D500230193436964
:10209C00019383690193019B621C5CD143691B060C
:1020AC0048D443695905F9D500236FF480640421A1
:1020BC0020224461296485F83C302B6385F83D204F
:1020CC002B6C042B2FD0032002B0BDE8F0814369A8
:1020DC00D907BDD4E4B1FFF799F9099BC01A844222
:1020EC0016D32868AFE700226FF480660424202101
:1020FC00036843F40073036046612C6485F83C204C
:10210C002A6385F83D102B6C042BDCD10120DBE716
:10211C00002320222B6385F83C3085F83D200320DA
:10212C0085F83E30D0E72A680120136843F4007329
:10213C001360C9E7012F0AD0330A0361671C19D158
:10214C004369190603D443695A05ADD4F8E7F6B2CE
:10215C0006610020B8E743691A06EBD443695905B8
:10216C00A2D4F4B1FFF752F9099BC01A844218D3D8
:10217C00286891E743691B06E9D443695B0593D44E
:10218C007CB1FFF743F9099BC01A844209D3286834
:10219C00D4E7002320222B6385F83C3085F83D20C2
:1021AC00B1E7202100222B6C85F83C200B432B64DB
:1021BC002A6385F83D1083E72DE9F04398460446E1
:1021CC00006889460168174641F480610160026825
:1021DC0083B042F480720A9E0B9D0260711C42D146
:1021EC004369DA07FCD55FFA89F909F0FE0303614C
:1021FC00721C13D043699A0713D4436959053DD413
:10220C00002E00F0A880FFF701F9401B8642C0F0B9
:10221C00A2802068ECE7436959052FD443699B07DA
:10222C00F9D5002301934369019383690193019BC1
:10223C00711C63D143691A0647D443695B05F9D510
:10224C0000236FF48065042120224561216484F809
:10225C003C30236384F83D20236C042B2ED00320C8
:10226C0003B0BDE8F0834369DB07BCD4DEB1FFF7F4
:10227C00CDF8401B864216D32068AFE700226FF4DE
:10228C00806604252021036843F4007303604661D3
:10229C00256484F83C20226384F83D10236C042BC5
:1022AC00DDD10120DCE700232022236384F83C30BD
:1022BC0084F83D20032084F83E30D1E722680120C9
:1022CC00136843F400731360CAE7B8F1010F0AD026
:1022DC003B0A0361731C2FD14369190603D443696C
:1022EC005A05ADD4F8E7FFB20761711C15D14369EB
:1022FC001A0638D443695B05A2D4F8E7436919067A
:10230C00E3D443695B059BD4002E4DD0FFF77EF8D8
:10231C00401B864248D320688AE743691F0622D4B3
:10232C0043695F058CD4002E3ED0FFF76FF8401B3D
:10233C00864239D32068D8E743691B06D3D4436956
:10234C005A053FF57DAF7EB3FFF760F8401B864220
:10235C002AD32068BEE700232022236384F83C3074
:10236C0084F83D209AE7036843F480730360711C82
:10237C000ED14369DA07FCD549F00109C0F8109079
:10238C002A4631462046FFF71FFE002886D167E714
:10239C004369DB07F0D4002E85D0FFF737F8401BDC
:1023AC00864280D32068E2E720210022236C84F847
:1023BC003C200B432364226384F83D104CE700BFA0
:1023CC0000286BD0F8B590F83D30044603F0FF02BE
:1023DC00002B4ED02423226884F83D301368304DF6
:1023EC0023F00103136001F099FD2E4B2168A3FB30
:1023FC00002362689B0CAA424B6025D85200B0FBAC
:10240C00F2F0C0F30B02032A98BF042001330B62D5
:10241C0000234FF0200EE269E768266A256916430F
:10242C003D436269A769C8613A430E608D60CA601A
:10243C000A68184642F001020A60236484F83DE001
:10244C00236384F83E30F8BD4FF4967505FB03F317
:10245C00154EA568A6FB03639B0901330B626DB98E
:10246C0002EB4202B0FBF2F0C0F30B039BB901206C
:10247C00CEE780F83C2005F031F8ABE702EB8202A6
:10248C0002EB8202B0FBF2F0C0F30B03002BEED098
:10249C0040F44040BCE740F40040B9E701207047ED
:1024AC00A086010083DE1B43D34D62102DE9F0475B
:1024BC00044682B098460E461746BDF82C90FEF79F
:1024CC00A5FF94F83D30202B04D00226304602B0F4
:1024DC00BDE8F087054605E0FEF798FF401B19287C
:1024EC0000F28C8022689369DB4313F0020AF3D06C
:1024FC0094F83C30012BE8D00121136884F83C108F
:10250C00D80702D413680B4313604FF0210E402000
:10251C004FF0000A1168434621F400611160584ADB
:10252C0031460A9E84F83DE084F83E00C4F840A091
:10253C00A4F82A90E262608D66620C9E019500966A
:10254C003A4620852046FFF771FD0646002870D1DB
:10255C002368218D002929D00C9A013259D15A694E
:10256C0017062DD45A695005F9D500226FF48065F1
:10257C00042020215D61206484F83C20226384F8CF
:10258C003D10236C042B73D003269FE75A69520726
:10259C0056D45A695705E8D40C9B002B5DD0FEF736
:1025AC0035FF0C9B401B834257D323680C9A013296
:1025BC00ECD15A69500743D45A695105D5D4F8E780
:1025CC00606A278D421C62620278791E1A61628DE4
:1025DC0089B2013A92B262855A6921855207B9D5FE
:1025EC000029E3D0821C62624278B91E1A61628DA6
:1025FC0089B2013A92B221856285ABE72023C4F8F7
:10260C0030A084F83CA084F83D30022684F83EA02B
:10261C005CE75A691106D3D45A695205A5D40C9BB0
:10262C00DBB1FEF7F3FE0C9B401B834215D32368F2
:10263C0092E7236C84F83CA0042BA5D1012645E736
:10264C00002120201A6842F400721A6084F83D00C0
:10265C0084F83C1084F83E1038E720210022236CCB
:10266C0084F83C200B432364226384F83D1088E7F4
:10267C0022680126136843F40073136026E700BF39
:10268C000000FFFF2DE9F04F044687B099460F4636
:10269C009046BDF844A0129EFEF7B8FE94F83D306B
:1026AC00202B04D00227384607B0BDE8F08F054632
:1026BC0004E0FEF7ABFE401B19283BD82268936957
:1026CC00DB4313F0020BF4D094F83C30012BE9D02F
:1026DC000121136884F83C10D80702D413680B430B
:1026EC0013604FF0220E40204FF0000B11684B4648
:1026FC0021F400611160964A84F83DE084F83E00B4
:10270C00C4F840B0A4F82AA0E262608D3946109F4C
:10271C00424667620195009620852046FFF74CFDE6
:10272C00074690B1236C84F83CB0042B00F0FF807A
:10273C000327B8E72023C4F830B084F83CB084F801
:10274C003D30022784F83EB0ADE7238D9BB923685A
:10275C0002905A6902929A690292029A1A6842F499
:10276C0000721A600023202284F83C3084F83D204B
:10277C0084F83E3097E7012B226800F00281022B8F
:10278C0000F01281116841F480611160059051696B
:10279C00059192690592059A002BE3D0032B00F268
:1027AC008480012B00F0D180022B46D0711C226852
:1027BC005CD153695B07FCD5136823F48063136009
:1027CC0072B62268636A1269591C61621A70638D51
:1027DC00228D013B013A9BB222856385711C2268D4
:1027EC0058D153695B07FCD51368616A43F40073D5
:1027FC00136013694A1C62620B70638D228D013B5E
:10280C009BB2013A6385228562B62268636A1269BB
:10281C00591C61621A70628D238D013A013B92B290
:10282C009BB262852385B7E7536958070BD436B33F
:10283C00FEF7ECFD401B864221D3711C2268F3D1BC
:10284C0053695B07FCD572B62368616A1A68481C29
:10285C0042F400721A601B6960620B70638D228DEA
:10286C00013B013A9BB222856385CDE7536958073A
:10287C00A2D426B1FEF7CAFD401B864296D2002395
:10288C002022236384F83C3084F83D20032784F80D
:10289C003E3008E753695807A6D4002EEFD0FEF758
:1028AC00B5FD401B864299D2E9E746B92BE05A693F
:1028BC00D0063ED4FEF7AAFD401B86422AD32368DD
:1028CC005A695206F3D5626A1B69511C6162137016
:1028DC00628D2168013A92B2238D62854A69013B6F
:1028EC009BB2520723857FF557AF636A0A69591C5F
:1028FC0061621A70238D628D013B013A9BB292B2D8
:10290C002385628548E723685A695106DBD45A69E6
:10291C00D1060ED420220021236C84F83C101343E2
:10292C00236484F83D20236C202B3FF401AF012756
:10293C00B9E600226FF0100020215861226484F85F
:10294C003C20226384F83D10EDE75EB914E000BF33
:10295C000000FFFF5A69D206EBD4FEF757FD401B6F
:10296C008642D7D323685A695106F3D5626A1B692C
:10297C00511C61621370BDE723685A695006C6D5B5
:10298C00F4E7136823F48063136072B62368039032
:10299C005A6903929A690392039A1A6842F4007274
:1029AC001A6062B6238DF7E6136843F40063136074
:1029BC0072B6236804905A6904929A690492049A34
:1029CC001A6822F480621A6062B6238DE4E600BFB6
:1029DC002DE9F0470446002084B098460E46174671
:1029EC000290BDF83450FEF711FD94F83D30202BC9
:1029FC0003D0022004B0BDE8F0873C4B3C4A1B6876
:102A0C008146DB08A2FB03231B0A03EB830303EBC6
:102A1C008303029303E02268936999070CD5029B08
:102A2C005A1E0292002BF6D12022236384F83C30EC
:102A3C0084F83D200320DDE794F83C30012BD8D0FE
:102A4C000121136884F83C10DB0702D413680B4394
:102A5C0013604FF0210E40204FF0000A13682549F7
:102A6C0023F4006313600C9B84F83DE0636284F8EC
:102A7C003E002585C4F840A06585E1620DB9284665
:102A8C00B8E7606BDFF874E01B492B46103201632A
:102A9C00C0F82CA00C99C0F834A0C0F828E0FEF7C0
:102AAC00DBFF2320CDF80490009043463A46314694
:102ABC002046FFF7BBFA38B1236C84F83CA0042BFA
:102ACC000CBF0120032095E7236803905A690392F9
:102ADC009A6984F83C000392039A5A6842F4807213
:102AEC005A605A6842F400625A6083E7100400206E
:102AFC0089B5F8140000FFFF092D0008352D0008DA
:102B0C002DE9F04F054683B01F4689469246FEF7E5
:102B1C007DFC95F83D30202B03D0022003B0BDE89E
:102B2C00F08F064605E0FEF771FC801B192800F2B9
:102B3C009E802B689A69D24312F00204F3D095F868
:102B4C003C20012AE9D001211A6885F83C10D407F1
:102B5C0002D41A680A431A60002124208B464FF0D5
:102B6C00A0081A6809F0FE0922F400621A60594A9A
:102B7C0085F83D002964EA621A6842F480721A6092
:102B8C00781C5FD15A69D107FCD5C3F81090FEF7B9
:102B9C003DFC2B68064658695A6995F83D1080072C
:102BAC0002F48062C9B212D48AB9A0290FD01FB125
:102BBC0036E062B9A0290AD085F83D8058695A6977
:102BCC0095F83D10800702F48062C9B2F1D520223D
:102BDC0085F83D205A6994075ED46FF480611A68B9
:102BEC0042F400721A60596105E0FEF70FFC801B7D
:102BFC00192832D82B689C69E44314F00204F4D0F1
:102C0C000BF1010BDA45B7D82022002385F83D20C3
:102C1C0085F83C30012081E7002AD8D1A029D6D0F4
:102C2C00FEF7F4FB801B87422B6838BF85F83D808C
:102C3C0058695A6995F83D10840702F48062C9B24C
:102C4C00C5D4E9E75A69D2079FD4D7B1FEF7DEFBAA
:102C5C00801B874215D32B6892E720232C6385F8C1
:102C6C003C4085F83D30032085F83E4056E7202354
:102C7C002C6385F83C4085F83D30022085F83E40B9
:102C8C004CE7002320222B6385F83C3085F83D204F
:102C9C00032085F83E3041E700211A6842F40072A7
:102CAC001A6001915A6901929A690192019A05E0A0
:102CBC00FEF7ACFB801B1928CFD82B689B69DB4334
:102CCC0013F00204F4D02023002085F83D3085F861
:102CDC003C0023E70000FFFF704700BF704700BFB8
:102CEC00704700BF704700BF704700BF704700BF00
:102CFC00704700BF704700BF704700BF38B5002158
:102D0C002025436A1C681846226822F480622260DF
:102D1C00598583F83D5083F83E101A6C42F010022E
:102D2C001A64FFF7E9FF38BD406A08B590F83D30EA
:102D3C0090F83E20DBB2212B25D0222B20D0002175
:102D4C0003681A6822F480621A601A6842F40072EE
:102D5C001A605A6822F480525A605A6822F400624F
:102D6C005A604185036CEBB9202280F83D2090F825
:102D7C003E2080F83E30402A11D0FFF7AFFF08BD4F
:102D8C00D2B2202ADBD1002103685A6822F40062F7
:102D9C005A6041855A6842F440725A6008BDFFF788
:102DAC00A9FF08BDFFF7A8FF08BD00BF704700BF13
:102DBC00F0B5044603688DB09D695969586894F85C
:102DCC003E20D2B2102A00F08F80402A00F08C8076
:102DDC008E4A0A401AB3820500F103828C4A2A40BB
:102DEC00002A00F0F9808B4A0A40002A40F0B38197
:102DFC00894A0A40002A00F0D480860540F1D1802F
:102E0C00628D92B2002A00F0CC80626A511C616221
:102E1C0012781A61638D013B9BB26385C1E07F4FD1
:102E2C000F40002FDAD08605D8D594F83D1058689D
:102E3C001E4620F4E06058600B925A69C9B20B929E
:102E4C001A6842F001021A600B9A1A6822F4806226
:102E5C001A605A6810050ED594F83D20222A00F00D
:102E6C00898294F83D202A2A00F08482626B1268D1
:102E7C00526892B26285628D92B2E2B15A6952077F
:102E8C0009D5626A1B69501C60621370638D2668D9
:102E9C00013B9BB2638573695F0608D5636A32692F
:102EAC00581C60621A70638D013B9BB26385236C66
:102EBC0043F004032364236C002B40F0F181A1F157
:102ECC002802022A40F22682236B222B01D02229CF
:102EDC0067D1002320222363204684F83D2084F808
:102EEC003E30FFF7FFFE5CE011F0011F43D086057A
:102EFC0000F15F814A4A0A40002A54D0444A2A40D1
:102F0C00002A44D0434A0A40002A00F08D8047052D
:102F1C0040F18A80404A0A40002A40F0898094F8A7
:102F2C003D20258D94F83E10D2B2C9B2E06A002D36
:102F3C0040F03982212A00F09782402931D1222A8F
:102F4C002FD1628D92B2002A00F07C8294F83E2040
:102F5C00402A7FF45AAF226D002A40F04483E26C81
:102F6C00012AA26C00F08C83C2F307221A61236D34
:102F7C000133236515E02A4A0A40A2B18205BDD56A
:102F8C00626CD2B21A61224A2A40002ABAD1254A6E
:102F9C000A40002A78D1204A0A4012B1810500F17A
:102FAC003A810DB0F0BD194A0A40002AA6D0870517
:102FBC00A4D594F83E20E76AD4F830E094F83D604C
:102FCC00D2B2222E00F0BA8100220A925A690A92D9
:102FDC009A690A920A9A91E7124A0A40002A40F02A
:102FEC008B800D4A0A40002ADBD08205D9D5628D30
:102FFC0092B2002AD5D0626A1B69511C61621370AF
:10300C00638D013B9BB26385CBE700BF02000100DF
:10301C0004001000800001000400010010000100F9
:10302C0008000100400001009C4A0A40002AB8D068
:10303C008605B6D5E16A94F83D20212AB1D1628D7E
:10304C0092B2002A7FF4E1AE042905D0082903D0FE
:10305C0011F5803F40F0FB81002120205A6822F4BA
:10306C00E0625A601A6842F400721A60216384F8B4
:10307C003D0094F83E302046402B84F83E1000F082
:10308C001082FFF729FE8CE7450584D5834A0A4058
:10309C00002A83D194F83D20222A82D1628D92B2EB
:1030AC00032AA8D8023A012AE26A40F2C0812025FC
:1030BC000021022A1A68606A14BF22F4806242F46A
:1030CC0080621A605A6822F4E0625A601B69421CE2
:1030DC0062620370638D013B9BB2638584F83D5043
:1030EC00216394F83E302046402B84F83E1000F0CB
:1030FC009481FFF7F3FD54E745057FF572AF674AFE
:10310C000A40002A7FF471AF94F83D10628DC9B269
:10311C0092B2002A3FF445AF626A1B69501C606290
:10312C001370638D013B9BB26385638D9BB2002B47
:10313C007FF437AF2A297FF434AF22252821226867
:10314C002046536823F480635360256384F83D1054
:10315C00FFF7C8FD25E747057FF54AAE4F4A0A4001
:10316C00002A7FF44AAE94F83D10628DC9B292B237
:10317C00002A3FF416AF626A501C606212781A6122
:10318C00628D013A92B26285628D92B2002A7FF40E
:10319C0008AF29297FF405AF212528215A6820463C
:1031AC0022F480625A60256384F83D10FFF798FD85
:1031BC00F7E694F83E20402A66D02269B2F5804F9B
:1031CC001DD0226D002A00F0B180226D012A7FF4FF
:1031DC0095AE626CD21102F0060242F0F1021A6155
:1031EC008CE699699B6981F004011F06C1F380018B
:1031FC0054BFA289228B2046FFF776FDD1E694F8C6
:10320C003D20212A626C16BF42F0010202F0FE0240
:10321C00D2B21A6172E6E16A628D92B2032A00F0B0
:10322C00AF80628D92B2022A7FF4E5AE042900F0E1
:10323C00DB80082900F0D88011F5803F00F0D480A5
:10324C001A68022914BF22F4806242F480621A6068
:10325C005A6822F440725A602020626A1B69551C1D
:10326C0065621370638D2268013B9BB26385636A50
:10327C0012695D1C65621A70638D0021013B9BB263
:10328C00638584F83D002BE7226D002A40F0858091
:10329C00626C02F0FE021A6130E600BF040001000D
:1032AC0094F83D30293B012B40F2BA8094F83D3024
:1032BC00602B236805D05A6815055CBF202284F862
:1032CC003D200022226384F83E201A6822F400621A
:1032DC001A605A6812F4006200F08F80616B5A68B1
:1032EC0091F8210022F4006201285A6000F0F1806C
:1032FC009F4B08464B63FEF7F3FB002840F05781C9
:10330C0094F83D30282B7FF44CAE236C5B077FF593
:10331C0048AE0023202297492046E162236384F8BB
:10332C003D2084F83E30FFF7E1FC3AE6626CD211A6
:10333C0002F0060242F0F0021A61DFE5266D16B9C2
:10334C00402A00F00081266D26B92269B2F5404F63
:10335C0000F00081628D92B24ABB02925A690292CD
:10336C009A690292029A1A6842F400721A60002258
:10337C002265C3E5A26B1268526892B262857AE547
:10338C00042905D0082903D011F5803F7FF433AE12
:10339C001A6822F480621A602DE6626C42F0010217
:1033AC00D2B21A61AAE5212A7FF4C7ADC9E5628DB4
:1033BC0092B2012A00F0AB80628D92B2022A00F028
:1033CC00DB801A6842F480621A605A68120503D5D1
:1033DC005A6842F480525A60002209925A69099242
:1033EC009A690992099AC2E75A6822F440725A60A3
:1033FC001A6842F400721A602EE794F83D106029A6
:10340C0052D05A69520604D5626A1B69511C61621A
:10341C0013702046FFF770FC72E7FFF76BFCC0E5FA
:10342C00002328222363236884F83D204DE7022AD9
:10343C001A6800F0168122F480621A601A6842F44D
:10344C0000621A605A6822F480625A60A9E511265B
:10345C0020255968204621F4E0615960266384F8E0
:10346C003E2084F83D500CE6042805D0082803D0F3
:10347C0010F5803F40F0C88000222020596821F4CC
:10348C00E0615960196841F400711960226384F895
:10349C003D0094F83E302046402B84F83E207FF4CB
:1034AC00F0ADFFF725FC7CE5202184F83D1022646B
:1034BC005A69510605D5626A1B69511C6162137009
:1034CC0023681A68204622F001021A60FFF76EFC8E
:1034DC0016E7A36B264A18465A63FEF701FB002831
:1034EC003FF40EAF23685A69500605D5626A1B6912
:1034FC00511C61621370236820211A68A06B22F0A2
:10350C0001021A60436B84F83D109847F8E617F5F2
:10351C00803F00F08880042F55D0082F53D0BEF187
:10352C00120F50D0E26A022A1A6814BF22F4806289
:10353C0042F480621A60002205925A6905929A69D7
:10354C000592059A13E700965A6900929A690092BF
:10355C00009AD3E401965A6901929A690192019AF0
:10356C001A6842F480721A60226D01322265C5E439
:10357C00B13600080000FFFFE26A0026022A1A6832
:10358C0065D042F400621A6007965A6907929A69EC
:10359C000792079A1A6822F480621A605A68160514
:1035AC007FF5E5AE5A6842F480525A60DFE620257A
:1035BC002268606B1368416B23F00103136084F87D
:1035CC003D5088479CE600261A6822F480621A60F7
:1035DC0006965A6906929A690692069A1A6842F4F5
:1035EC0000721A60C3E6226D012A4FD0226D022AA6
:1035FC007FF4D7AC94F83D20222A4ED094F83D208D
:10360C00212A7FF4CEAC00E4112620215A682046F2
:10361C0022F4E0625A60266384F83E5084F83D1030
:10362C00FFF75AFBBDE41A6822F480621A605A68EC
:10363C0012F4006219D000261A6822F480621A6013
:10364C0003965A6903929A690392039A8FE642F49D
:10365C0080621A6008965A6908929A690892089AC8
:10366C009CE742F480621A60ECE604925A69049278
:10367C009A690492049A1A6842F400721A6076E607
:10368C00D2B21A61236D023323658AE4A26CD2B2E2
:10369C001A61236D0133236583E41A6842F4807246
:1036AC001A607EE438B50023406A0268456B1168E5
:1036BC00846B21F480611160438590F83D106B633D
:1036CC0060294FF02001636380F83D1080F83E3094
:1036DC0006D0136823F001031360FFF70DFB38BD10
:1036EC000364136823F001031360FFF75FFB38BD1D
:1036FC00F8B503689E495D6904460D425A6829D0A5
:10370C00D00527D56FF48070216C15F4813F41F002
:10371C00010121645861196841F40041196000F0FD
:10372C00A0806FF40070216C15F4823F41F002010F
:10373C00216458615FD115F4843F08D0D60506D5B5
:10374C006FF40061226C42F0080222645961236C10
:10375C005BB9F8BD15F4813F48D0D105E1D415F41F
:10376C00823FE8D0236C002BF3D094F83D30293BFA
:10377C00012B40F2AA8094F83D30602B236805D0D1
:10378C005A6815055CBF202284F83D200022226374
:10379C0084F83E201A6822F400621A605A6812F407
:1037AC00006242D194F83D10602900F0B3805A6950
:1037BC00520604D5626A1B69511C61621370204663
:1037CC00FFF79AFA94F83D30282BC2D1236C5B0793
:1037DC00BFD50023202267492046E162236384F889
:1037EC003D2084F83E30FFF781FAF8BD15F4823F96
:1037FC00A1D0D705ABD594F83E00628D94F83D105E
:10380C00202892B2C9B2266B2FD0226C42F004024F
:10381C00226494F83E20102A52D06FF480625A61D0
:10382C0015F4843F93D023688AE7616B5A6891F84A
:10383C00210022F4006201285A604DD04E4B0846FC
:10384C004B63FEF74DF90028BCD020252268606B35
:10385C001368416B23F00103136084F83D508847D3
:10386C00B0E715F4823FC6D165E7002ACDD101F04F
:10387C00F702212A03D02829C7D1212EC5D194F8CB
:10388C003D20E16AD2B2042959D0082957D0212A07
:10389C00C3D1202600206FF48061364FE76222638B
:1038AC0084F83D6084F83E005A68204622F4E062B9
:1038BC005A6059611A680A401A60FFF711FAAFE7AB
:1038CC001A6842F400721A60A7E7002328222363C7
:1038DC00236884F83D205DE7A36B274A18465A639A
:1038EC00FEF7FEF800283FF46DAF23685A695006C6
:1038FC0005D5626A1B69511C616213702368202113
:10390C001A68A06B22F001021A60436B84F83D1018
:10391C00984757E7202184F83D1022645A695106D4
:10392C0005D5626A1B69511C6162137023681A68A1
:10393C00204622F001021A60FFF738FA42E7282AE3
:10394C00A5D16FF48067002120260A4A2046E26246
:10395C005A6822F4E0625A605F611A683A401A6051
:10396C00216384F83D6084F83E10FFF7BFF957E7F8
:10397C00000101000000FFFFB136000890F83D0087
:10398C00704700BF2DE9F041036882B0DD070446A3
:10399C0030D5AD494A6802F00C02042A00F0FA80D6
:1039AC004A6802F00C02082A00F0F0806368B3F554
:1039BC00803F00F07481002B00F00481B3F5A02F40
:1039CC0000F0A981A04B1A6822F480321A601A68A0
:1039DC0022F480221A60FDF719FD9B4D064605E086
:1039EC00FDF714FD801B642800F217812B689A03E5
:1039FC00F6D523689F0728D5934A516811F00C0F10
:103A0C0000F0A980516801F00C01082900F09F809A
:103A1C002369002B00F0328101228C4B8A4D1A60F5
:103A2C00FDF7F4FC064605E0FDF7F0FC801B0228D0
:103A3C0000F2F3802B689807F6D52B68626923F0A7
:103A4C00F80343EAC2032B6023681A075DD45D07B1
:103A5C003AD57D4BDA69D00000F1A6800125DA69F0
:103A6C0042F08052DA61DB6903F080530093009BD3
:103A7C00774B1A68D10540F1BF80E368012B00F049
:103A8C001481002B00F0CD80052B6F4B1A6A00F0CF
:103A9C004F8122F001021A621A6A22F004021A62A1
:103AAC00FDF7B4FC684E804641F2883706E0FDF71E
:103ABC00ADFCA0EB0800B84200F2AF80336A9B0764
:103ACC00F5D5002D40F0F780E369D3B15E4D6A68FF
:103ADC0002F00C02082A45D0022B4FF000025D4B7D
:103AEC0000F0EF801A60FDF791FC2C46054605E0CE
:103AFC00FDF78CFC401B022800F28F8023689B0191
:103B0C00F6D4002002B0BDE8F081A369002B2DD0C3
:103B1C000122514B4C4D1A60FDF778FC064604E02F
:103B2C00FDF774FC801B022877D86B6A9B07F7D5CE
:103B3C004A4B4B4A1B68A2FB03235B0A019300BF51
:103B4C00019B5A1E0192002BF9D123687FE7526822
:103B5C00D6033FF55DAF3C4A1268950726D522691E
:103B6C00012A23D0012002B0BDE8F0813A4A364D3B
:103B7C001360FDF74BFC064604E0FDF747FC801B89
:103B8C0002284AD86B6A9F07F7D4DEE74A68D0034D
:103B9C007FF50CAF2C4A126891037FF52BAF62684E
:103BAC00002A7FF427AFDDE7002561E7264960692D
:103BBC000A6822F0F80242EAC0020A601A077FF58E
:103BCC0046AFA2E703F1804303F504331A681D46A0
:103BDC0022F480321A601A6822F480221A60FDF7EF
:103BEC0015FC064604E0FDF711FC801B642814D874
:103BFC002B689B03F7D4FCE61A681E4642F48072CD
:103C0C001A60FDF703FC07463368DA053FF535AF5C
:103C1C00FDF7FCFBC01B6428F6D9032002B0BDE8FD
:103C2C00F08103F1804303F504331A6A1E4622F037
:103C3C0001021A621A6A41F2883822F004021A62EE
:103C4C00FDF7E4FB074612E0001002400000424280
:103C5C000070004060004242800442421004002088
:103C6C00D34D6210FDF7D2FBC01B4045D5D8336A4B
:103C7C009807F7D4002D3FF427AF1CE0344A354D9C
:103C8C001360FDF7C3FB064604E0FDF7BFFB801B8A
:103C9C000228C2D82B689907F7D42368D5E62D4A99
:103CAC00136843F48033136095E62A4A136A43F091
:103CBC0001031362F4E6274AD36923F08053D361DE
:103CCC0002E71A60FDF7A2FB064604E0FDF79EFB37
:103CDC00801B0228A1D82B689901F7D4226AB2F56F
:103CEC00803F2DD001251B4B606A5968024321F49B
:103CFC00741119480A435A6005601C46FDF786FB8F
:103D0C00054604E0FDF782FB401B022885D823689A
:103D1C009A01F7D5F5E603F18043A3F53C331A6815
:103D2C0042F480221A601A6842F480321A6052E619
:103D3C0042F004021A621A6A42F001021A62AFE6F9
:103D4C006B68A16823F400330B436B60CAE700BFB8
:103D5C00000042420010024060004242654A136873
:103D6C0003F007038B420BD2136823F007030B43BA
:103D7C001360136803F00703994201D001207047C8
:103D8C002DE9F041036886B09C0706D55A4C85682E
:103D9C00626822F0F0022A436260DA0706460C469B
:103DAC0024D54268544B012A1B6800F09280022AE9
:103DBC0000F087809D0729D54F4D41F288386B68FC
:103DCC0023F0030313436B60FDF720FB7368074676
:103DDC00012B65D0022B05D16DE0FDF717FBC01B45
:103DEC00404572D86B6813F00C0FF6D1414A13683A
:103DFC0003F007039C420DD2136823F007032343FF
:103E0C001360136803F007039C4203D0012006B033
:103E1C00BDE8F0813368580706D53749F0684A6821
:103E2C0022F4E06202434A60190707D5324A31692D
:103E3C00536823F4605343EAC103536001260225FF
:103E4C002E4B06AF0FCB07E90F002B4C8DF80460FF
:103E5C008DF80550626802F00C03082B0AD1C2F3EE
:103E6C0083433B44D20313F8103C36D4244A02FB60
:103E7C0003F300E0234B204A234852682349C2F342
:103E8C000312825C0020D3400B60FDF78FFA0020F8
:103E9C0006B0BDE8F081FDF7B9FAC01B404514D857
:103EAC006B6803F00C03042BF5D19FE7FDF7AEFA1A
:103EBC00C01B404509D86B6803F00C03082BF5D1E7
:103ECC0094E79F013FF578AFA0E7032006B0BDE86B
:103EDC00F0819B033FF570AF98E762680949C2F324
:103EEC0040423A4412F8142CB1FBF2F203FB02F3F9
:103EFC00C1E700BF002002400010024060B2000881
:103F0C0000093D0000127A00DCC1000810040020FA
:103F1C00014B1868704700BF10040020044B054982
:103F2C005B68054AC3F30223CB5C1068D84070472A
:103F3C0000100240ECC1000810040020044B05499D
:103F4C005B68054AC3F3C223CB5C1068D84070474A
:103F5C0000100240ECC10008100400202DE9F041D3
:103F6C000446006882B0C30727D53B4BDA69D700FB
:103F7C003BD53A4B00251A68D60544D5364A136A08
:103F8C0013F440730FD0616801F4407083420BD07E
:103F9C0001270026136A324923F440700F600E602B
:103FAC00D907106246D461682B4A136A23F4407314
:103FBC000B431362002D38D1206883070DD410F009
:103FCC00100007D00020244AE168536823F48003D2
:103FDC000B43536002B0BDE8F0811F4AA1685368DF
:103FEC0023F440430B435360E9E7DA69012542F0BF
:103FFC008052DA61DB6903F080530193019B174B0C
:10400C001A68D605BAD41A681E4642F480721A6031
:10401C00FDF7FCF907463368D805AFD4FDF7F6F980
:10402C00C01B6428F7D90320D4E7D36923F080534D
:10403C00D361C1E71646FDF7E9F941F288378046AE
:10404C0005E0FDF7E3F9A0EB0800B842EBD8336AC2
:10405C009A07F6D5A7E700BF001002400070004099
:10406C004004424200284AD038B590F83D3004460E
:10407C0003F0FF0253B302232268224984F83D3037
:10408C008A42136827D0B2F1804F16D0A1F5943133
:10409C008A4212D001F580618A420ED0A569E0688F
:1040AC00616823F080032B431360D062916201237B
:1040BC000020536184F83D3038BDA16823F07003B3
:1040CC000B43216923F440730B43E7E780F83C2052
:1040DC0005F030FFCFE7A16823F070030B43216993
:1040EC0023F440730B43A16923F080030B4313604B
:1040FC00E368D3626368936263691363D7E7012053
:10410C00704700BF002C0140704700BF00284AD008
:10411C0038B590F83D30044603F0FF0253B3022348
:10412C002268224984F83D308A42136827D0B2F1C4
:10413C00804F16D0A1F594318A4212D001F58061DE
:10414C008A420ED0A569E068616823F080032B4396
:10415C001360D062916201230020536184F83D30DA
:10416C0038BDA16823F070030B43216923F440731D
:10417C000B43E7E780F83C20FFF7C6FFCFE7A168C9
:10418C0023F070030B43216923F440730B43A169A3
:10419C0023F080030B431360E368D362636893627C
:1041AC0063691363D7E70120704700BF002C0140FF
:1041BC000122036802FA01F11A6A0A4822EA010292
:1041CC001A621A6A834241EA0201196205D01A681E
:1041DC00002042F001021A6070475A6C42F400420F
:1041EC005A64F4E7002C014090F83C30012B43D08A
:1041FC00F0B50223012480F83D3080F83C400C2AB5
:10420C0032D8DFE802F065313131073131318E318E
:10421C0031313B0003688F681D6A0E6825F010056C
:10422C001D621A6A6C4DD3F804E09C6922F02002DE
:10423C0024F4E644AB4242EA071244EA062400F0B6
:10424C00AE804D68C3F804E09C619D631A629C6962
:10425C000D6944F400649C61996921F48061996151
:10426C009A6942EA05229A610023012280F83C30C7
:10427C0080F83D201846F0BD0220704703688F6817
:10428C001D6A0E6825F480551D621A6A524DD3F8CA
:10429C0004E0DC6922F4005224F4E644AB4242EA26
:1042AC00073244EA062465D04D68C3F804E0DC61AB
:1042BC001D641A62DC690D6944F40064DC61D9691F
:1042CC0021F48061D961DA6942EA0522DA61CBE72F
:1042DC0003688F681D6A0E6825F001051D621A6A55
:1042EC003D4DD3F804E09C6922F0020224F07304E3
:1042FC00AB4242EA070244EA06045FD04D68C3F8B9
:10430C0004E09C615D631A629C690D6944F00804C9
:10431C009C61996921F0040199619A692A439A6117
:10432C00A2E703688F681D6A0E6825F480751D620C
:10433C001A6A294DD3F804E0DC6922F4007224F0E7
:10434C007304AB4242EA072244EA060418D04D68D3
:10435C00C3F804E0DC61DD631A62DC690D6944F0CA
:10436C000804DC61D96921F00401D961DA692A43B6
:10437C00DA6179E74D692EF4804E4EEA851E93E79B
:10438C004F698D69CE6822F400622EF4405E42EAD9
:10439C0006223D4322F480624EEA051ED7E74F69A0
:1043AC008D69CE6822F080022EF4406E42EA06122D
:1043BC003D4322F040024EEA850E42E7CF684D693C
:1043CC008E6922F008022EF4407E3A43354322F0E7
:1043DC00040245EA0E0E91E7002C014090F83C30A7
:1043EC00012B40D00222F0B40125036880F83D2057
:1043FC009A680C6822F47F4222F07702402C80F8F5
:10440C003C509A6073D018D9702C60D02DD9B4F56B
:10441C00805F57D0B4F5005F1CD18A684D68CC68BA
:10442C0099682A4342EA042221F47F410A439A60A4
:10443C009A6842F480429A600CE0102C32D038D941
:10444C00202C6CD0302C05D19A6822F0700242F0EE
:10445C0037029A600023F0BC012280F83C3080F8CF
:10446C003D201846704702207047502C5ED0602CBF
:10447C00F0D11C6A4D6824F01004CE681C62996956
:10448C001A6A21F4704122F0A00242EA051241EAB4
:10449C00063199611A629A6822F0700242F0670242
:1044AC009A60D7E79A6822F0700242F017029A607D
:1044BC00D0E7002CCED19A6822F0700242F00702AD
:1044CC009A60C7E79A6822F007029A60C2E78A6886
:1044DC004D68CC6899682A4342EA042221F47F4152
:1044EC000A439A609A6842F077029A60B2E71D6AB2
:1044FC001E6A4C6826F00106CF681E629A6925F088
:10450C000A0122F0F00242EA071221439A61196271
:10451C009A6822F0700242F047029A609AE79A6811
:10452C0022F0700242F027029A6093E71D6A1E6A1D
:10453C004C6826F00106CF681E629A6925F00A01C4
:10454C0022F0F00242EA071221439A6119629A683A
:10455C0022F0700242F057029A607BE7704700BF6E
:10456C00704700BF704700BF704700BF704700BF67
:10457C00036810B51A690446910702D5DA689207E8
:10458C0062D41A69500702D5DA68510749D41A69FE
:10459C00120702D5DA68100731D41A69D20602D58F
:1045AC00DA68D00618D41A69D10702D5DA68D207AE
:1045BC006BD41A69100602D5DA6811066DD41A6923
:1045CC00520602D5DA68500657D41A69910602D5FC
:1045DC00DA68920649D410BD6FF0100108221961F7
:1045EC00DB69204613F4407F227761D1FFF7B8FFD7
:1045FC002046FFF7B9FF002223682277D3E76FF03C
:10460C00080104221961DB6920469907227755D1EC
:10461C00FFF7A6FF2046FFF7A7FF002223682277AB
:10462C00BBE76FF00401022219619B69204613F469
:10463C00407F22773FD1FFF793FF2046FFF794FF8F
:10464C00002223682277A2E76FF002010122196190
:10465C009B6902779B0728D1FFF782FF2046FFF763
:10466C0083FF0022236822778BE76FF0200220461D
:10467C00BDE810401A6100F04BB86FF040022046C4
:10468C001A61FFF773FF23689FE76FF00102204662
:10469C001A61FFF763FF23688BE76FF080022046F7
:1046AC001A6100F037F8236889E7FFF75BFFD8E75A
:1046BC00FFF758FF9FE7FFF755FFC1E7FFF752FFE2
:1046CC00ABE700BF90F83C30012B1FD00246022014
:1046DC00F0B500250126136882F83D005C68D1F81E
:1046EC0000E024F070045C6058684F6840EA0E00EB
:1046FC0058609C68284624F080049C609968394373
:10470C00996082F83D6082F83C50F0BD0220704701
:10471C00704700BF704700BF2DE9F0478246046820
:10472C00C1682269836822F440520A432261E2681C
:10473C000069DAF8141022F4B052034322F00C0290
:10474C000B431343E3606369DAF81810514A23F4FE
:10475C0040730B439442636159D0FFF7DFFBDAF8E7
:10476C00043000EB800000EB80009B00B0FBF3F307
:10477C00494F4FF06408A7FB03235B091D01FFF7AA
:10478C00CDFBDAF8042000EB8000930000EB8000F6
:10479C00B0FBF3F6FFF7C2FBDAF8042000EB800065
:1047AC00930000EB8000B0FBF3F3A7FB03235B0942
:1047BC0008FB13631B013233A7FB03235B0903F0D4
:1047CC00F006FFF7ABFBDAF8042000EB800000EBFF
:1047DC0080009300B0FBF3F9FFF7A0FBDAF804308C
:1047EC0000EB800000EB80009B00B0FBF3F3A7FB19
:1047FC0003235B0908FB13931B013233A7FB032331
:10480C00C3F3431333432B44A360BDE8F087FFF796
:10481C0095FBDAF8043000EB800000EB80009B0085
:10482C00B0FBF3F31C4F4FF06408A7FB03235B09A9
:10483C001D01FFF783FBDAF8042000EB80009300E6
:10484C0000EB8000B0FBF3F6FFF778FBDAF80420FE
:10485C0000EB8000930000EB8000B0FBF3F3A7FBB0
:10486C0003235B0908FB13631B013233A7FB0323F0
:10487C005B0903F0F006FFF761FBDAF8042000EBAC
:10488C008000930000EB8000B0FBF3F9FFF756FBC0
:10489C00A4E700BF003801401F85EB5160B338B569
:1048AC0090F83930044603F0FF0203B32423226846
:1048BC0084F83930D368204623F40053D360FFF7D3
:1048CC002BFF00252021236828461A6922F49042E8
:1048DC001A615A6922F02A025A61DA6842F40052CB
:1048EC00DA60E56384F8391084F83A1038BD80F842
:1048FC00382005F035FED9E7012070472DE9F04F3F
:10490C00904683B0BDF930505A1A1E46A5EB0803E9
:10491C00002BB8BF5B42002AB8BF524293420746F5
:10492C00BDF834A06EDCAE464446AC464046354637
:10493C008846764621469946A84551DD4FF6FF7EBE
:10494C00B142C8BF4FF0010EA8EB0504A4B2A0EB16
:10495C000C00009424B204EBD47480EAE079A9EB47
:10496C00E0796410CDF804E093421FFA89F926DC53
:10497C0008E0019AA8451644009A36B202EB0304EB
:10498C0024B211DB3A685346D2F80CB02946A4EB9A
:10499C00090432463846D847A3B21CB20135002C64
:1049AC002DB2E6DBA845EDDA03B0BDE8F08F019A35
:1049BC001644009A36B2D41824B2A845F4DB3A68EF
:1049CC005346D2F80CB0A4EB09042A4631463846BB
:1049DC00D847A3B21CB20135002C2DB2EDDAE6E7B4
:1049EC00A5EB080080B204B204EBD474B142009081
:1049FC004FEA640428460E46454607DA01218046F4
:104A0C000191B1E7B4460846914695E74FF6FF7120
:104A1C0080460191A8E700BF704700BF2DE9F04F19
:104A2C000F468BB00B44BDF95010BB42059303925B
:104A3C000991BDF854B047DD93B21A460646079368
:104A4C004B1E13449BB208931BB204933368404A29
:104A5C005C6994425AD11C693E4A944263D1039AD0
:104A6C0004998A4233D06DDD92460C46079A089918
:104A7C00521A92B215B205EBD575A2454FEA6505EF
:104A8C001DDBB8460697B146174603E0A24514DB7A
:104A9C00D9F80030DE6822465B4641464846B047AE
:104AAC000134002D24B2ABB2F0DA08F1FF38DD1975
:104ABC00A2450FFA88F82DB2EADA4E46069F013766
:104ACC00059B3FB29F42C1DB0BB0BDE8F08F904617
:104ADC003C460025B14601E0D9F800304246DE687C
:104AEC0021465B464846B0470134002DB8BF08F15B
:104AFC00FF3824B2B8BF0FFA88F8A742ECDA0137B6
:104B0C00059B3FB29F424E46A0DBDDE7099B394631
:104B1C00CDF800B0039A3046A0470137059B3FB251
:104B2C009F4293DBD0E7049B39460093CDF804B049
:104B3C003B46039A3046A0470137059B3FB29F4244
:104B4C0084DBC1E78A4614460799089A90E700BFB0
:104B5C00954C0008094900082DE9F04F0368474AB5
:104B6C001C6AB0F90E508846B0F90C1089B094420A
:104B7C0005912F46079571D1002954DD4FF0000A9D
:104B8C0055467A1E92B2069212B203925C693C4A66
:104B9C00064694422F4638D11C693A4A944253D166
:104BAC00039A002A42D063DA1446002293460699EF
:104BBC00521A92B215B205EBD57504926D10B1462E
:104BCC0003E0A34513DBD9F80030DE6822464346E8
:104BDC0039464846B0470134002D24B2ABB2F0DA66
:104BEC00049A013FD518A3453FB22DB2EBDA4E46DD
:104BFC000AF1010A059B0FFA8AF5AB4213DD336803
:104C0C001F4A5C692F469442C6D02946079BCDF8B3
:104C1C00008000223046A0470AF1010A059B0FFADA
:104C2C008AF5AB42EBDC09B0BDE8F08F2C4600E016
:104C3C00336821460134DF6800224346304624B2F3
:104C4C00B847A542F4DAD3E7039BCDF80480009370
:104C5C0029462B4600223046A047C9E72B460022A6
:104C6C008DE808011146059BA04709B0BDE8F08FFF
:104C7C00002193460C46069A9AE700BF294A000881
:104C8C00954C0008094900082DE9F04FD0F800E0D8
:104C9C00013B1FFA82FADEF81050DFF8BCC0534417
:104CAC0083B09BB265451CB20F46BDF8308046D12F
:104CBC00A2420646914627D048DDAAEB040A1FFA09
:104CCC008AFA0FFA8AF505EBD5754C454FEA65055E
:104CDC0004DD16E04C4514DCD6F800E043462246D1
:104CEC00DEF80CB039463046D8470134002D24B2DA
:104CFC00ABB2EFDA013F03EB0A054C453FB22DB2E4
:104D0C00EADD03B0BDE8F08F0D464FF0000901E07D
:104D1C00D6F800E022462946DEF80CA04346304681
:104D2C00D0470135B9F1000FB8BF04F1FF342DB2F3
:104D3C00B8BF24B2AF42EBDA03B0BDE8F08F8DE818
:104D4C0010010B46A84703B0BDE8F08F22469A46E7
:104D5C004C469146B1E700BF094900082DE9F04FD8
:104D6C0007689BB203F1FF3B3D69DFF880E01FFA57
:104D7C008BFB83B00BEB0104754524B21646BDF8D2
:104D8C0030A02CD1A1428046894620DDC3F101031D
:104D9C001FFA83FB0FFA8BF505EBD5756D1003E04D
:104DAC00A14511DBD8F800702146FF685346324606
:104DBC004046B8470134002D24B2F1DA013E5D447F
:104DCC00A14536B22DB2EDDA03B0BDE8F08F0FFA83
:104DDC008BF505EBD575A1466D100C46E4E78DE817
:104DEC0040042346A84703B0BDE8F08F09490008EA
:104DFC002DE9F04F8BB0BDF95060D0F800E005966E
:104E0C00DEF81840684E0546B442039102920693B0
:104E1C00BDF8548040F099809BB25C1E1FFA84F957
:104E2C008CB204EB09070794604EDEF81040BFB259
:104E3C000897B4423FB2049740F0AD80B9427BDD95
:104E4C00C3F101039BB23C468B461A461EB206EBDD
:104E5C00D6767610CDF82490029F73469146AA46DA
:104E6C0003E0A34511DBDAF80030DD682146434648
:104E7C003A465046A8470134002E24B2F1DA013FDD
:104E8C004E44A3453FB236B2EDDA5546DAF800305F
:104E9C00DDF824909C69059A561E029A1644424AE3
:104EAC0036B2944265D11C69404A94426AD1039946
:104EBC00049CA14237DD8B46079A0899571A1FFAB2
:104ECC0087F90FFA89F707EBD7777F1002E0A34534
:104EDC002B6811DBD3F80CA02146434632462846FA
:104EEC00D0470134002F24B2F1DA013E4F44A345E0
:104EFC0036B23FB22B68EDDA059F029ECDF80080EA
:104F0C005C6903993B4632462846A0472868CDF891
:104F1C00508044693B4632462846A44604990BB05F
:104F2C00BDE8F04F60470FFA89F707EBD7770C46CF
:104F3C007F10DDF810B0CDE70FFA89F606EBD676C8
:104F4C000C46BB4676104A4684E7CDF80080A04755
:104F5C00069B013B1FFA83F9BDF80C301A4602EB95
:104F6C000907BAB207932B68089212B29C69049293
:104F7C0091E7069BCDF80080324603992846A0475E
:104F8C002B68B9E7049B8DE840013246039928460B
:104F9C00A0472B68B0E713468DE80801049BA04797
:104FAC002B689C6977E700BF694D00080949000828
:104FBC00F0B40024012625464FF0FF3761F30F04AF
:104FCC00064962F31F448460C460476145604576BE
:104FDC000561067686760160F0BC7047B4B90008AE
:104FEC002DE9F04F0E4691B0BDF96C50B6B20D954F
:104FFC00ADB22F460C956D009BB2ADB205960693E3
:10500C005E1B059BB6B23B4437B20E97BDF9687078
:10501C00089109970168BDF8707007950B978D6919
:10502C003B4F9BB2BD4204460A9603930FFA83FB97
:10503C00049240F0F88103EB060A1F460E69354BCB
:10504C000AF1FF3A1FFA8AFA9E420FFA8AF540F0EB
:10505C000582AB4540F3D981A7EB0A0AD94617461E
:10506C001FFA8AFA0FFA8AF606EBD6767610CDF886
:10507C003CB0A046DDF82CB003E04D4511DCD8F86F
:10508C000010CC685B4629463A464046A04701359D
:10509C00002E2DB2F1DA013F56444D453FB236B2E7
:1050AC00EDDD4446D8F80030DDF83CB09D69BDF824
:1050BC001020BDF824A0114604920AF1FF320A44D4
:1050CC0092B20F9217B2124A954240F0B4810A9AEA
:1050DC00039991461E6989440E4A09F1FF391FFA5A
:1050EC0089F996420FFA89F540F0AE81AB4540F351
:1050FC007A81A1EB09091FFA89F90FFA89F606EBF7
:10510C00D676CDF824A07610A046DDF82CA007E0CA
:10511C00694D0008094900085D4511DCD8F80030DC
:10512C00DC68294653463A464046A0470135002ED6
:10513C002DB2F1DA013F4E445D453FB236B2EDDDA2
:10514C004446DDF824A0D8F80020049B0C990B44AD
:10515C0098B2064604900798B046AAEB00050B9847
:10516C002DB2009036B257692B460899324620462C
:10517C00B847059A0B9F1346069A206813449AB2B7
:10518C0013460097591E08922B46324609B24569C0
:10519C002046A8470C99C1EBC132C1F101030D990E
:1051AC00520012B21BB2002909920E9340F31881DF
:1051BC0091468A4608F1FF324FF0000BB8461D4667
:1051CC00039B92B2013B9BB206920793CDF81490CD
:1051DC00069B1FFA8BF69A1B002D434612B22046F3
:1051EC000BF1010B0DDB05990AF1FF3A01F10209F4
:1051FC001FFA89F94D440FFA89F12DB205910FFA76
:10520C008AFA05EB4605039905F1030E1FFA8AF796
:10521C002568C91B09B2D5F80C900FFA8EF5C84752
:10522C00049A07992368D21B891B0136DF6812B2D6
:10523C0009B24346204636B2B8475645C8DB0C9BEC
:10524C004FF0000BDB43089ADDF824901A4493B21C
:10525C00059301339BB20E9DDDF834A0DDF82C8054
:10526C000893CDF82890089B1FFA8BF6F118002DA7
:10527C00434609B220460BF1010B0DDB0A9A0AF1E9
:10528C00FF3A02F102091FFA89F94D440FFA89F22B
:10529C002DB20A920FFA8AFA05EB4605049A05F12B
:1052AC00030E1FFA8AF72568D21B12B2D5F80C90A0
:1052BC000FFA8EF5C847059A2368D119069ADF684C
:1052CC00921B013609B212B24346204636B2B84799
:1052DC005645C8DB4FF0000B0F9B0C9ADDF8249061
:1052EC009B1A9BB2069301339BB20E9DDDF834A042
:1052FC00DDF82C800493CDF82890089B1FFA8BF6D0
:10530C00F118002D434609B220460BF1010B0DDBC1
:10531C000A9A0AF1FF3A02F102091FFA89F94D447F
:10532C000FFA89F22DB20A920FFA8AFA05EB4605AA
:10533C00069A05F1030E1FFA8AF72568BA1812B2FD
:10534C00D5F80C900FFA8EF5C847059A2368D11939
:10535C00049ADF68B218013609B212B243462046ED
:10536C0036B2B8475645C8DB00260E9DDDF83480B2
:10537C00DDF82CA0DDF83090049BB7B2FA18002DA4
:10538C00534612B2204606F101060CDB099908F1CE
:10539C00FF38023189B20D440FFA88F809B22DB2E8
:1053AC0009911FFA88F9039905EB4705A1EB090E42
:1053BC0021680335D1F80CB00FFA8EF1D847069A54
:1053CC0007992368C91B4A440137D3F80CB012B2B1
:1053DC0009B2534620463FB2D847B8452DB2CBDC74
:1053EC0011B0BDE8F08F5A46A9EB01091FFA89F9F3
:1053FC000FFA89F606EBD676AB46CDF824A07610DC
:10540C001546A046DDF82CA08AE6039BA946AAEB1C
:10541C00030A1FFA8AFA0FFA8AF606EBD67676108A
:10542C005D46174623E60B9B594600930E9BA847F7
:10543C0023689D693BE60B9B3A46009359460E9BAD
:10544C002046A847226880E60B9B3A4601930097BA
:10545C002B4659462046B047226876E60B9B5946A8
:10546C000193049B00932B46B04723689D691EE66D
:10547C002DE9F04F174693B0BDF970400546BDF9C4
:10548C007800A74210921194BDF974200990BDF8D0
:10549C007C8040F30681874240F371812646099C4B
:1054AC003846A64240F37C81109409979BB21C4667
:1054BC000C9393B21E46DDF844C0DDF824E005934E
:1054CC008BB2BDF840101FFA8CF0A71B9E1B1B1B48
:1054DC001FFA8EF2441A9BB2511A0B9323B2121A72
:1054EC000E930BB2F445069313B20F9363460CBFA5
:1054FC00634600F1FF30109A18BF03B2BFB2B6B2C8
:10550C0093420D9703960A93C0F25381002308939C
:10551C000793AA4B02920493079A08980E99069C3B
:10552C0092FBF1F390FBF4F9059C0D992344A144F3
:10553C00039C11441BB20FFA89F9221809B212B25A
:10554C004B450791089202DC4A46994613462A6855
:10555C000498946901331FFA89F15B1A84429BB257
:10556C0040F0E9804E1E1E441769954BB6B29F421F
:10557C0034B240F0F180A14540F3CB808E1BB6B223
:10558C0037B207EBD7777F10DDF808A002E0A14512
:10559C0013DB2A68D2F80CB0214643465246284603
:1055AC00D8470134002F24B2F1DA0AF1FF3A37441C
:1055BC00A1450FFA8AFA3FB2EBDA029B0A9A013341
:1055CC001BB29A420293A7DA10995A1A039902FB5A
:1055DC0001F212B20792119A9B1A0B9A03FB02F377
:1055EC001BB20893099A029B934257DC734B0493AA
:1055FC00089A0F99079892FBF1F3069C0C9990FB73
:10560C00F4F90B440599039C89440B991BB2114482
:10561C000FFA89F9221809B212B24B450891079278
:10562C0002DC4A46994613462A6804989469013369
:10563C001FFA89F15B1A84429BB274D14E1E1E4430
:10564C0017695F4BB6B29F4234B27CD1A14556DD8F
:10565C008E1BB6B237B207EBD7777F10DDF808A0F8
:10566C0002E0A14513DB2A68D2F80CB02146434670
:10567C0052462846D8470134002F24B2F1DA0AF1F9
:10568C00FF3A3744A1450FFA8AFA3FB2EBDA029B94
:10569C00099A01331BB29A420293A9DA13B0BDE8FE
:1056AC00F08F2046099CA0421DDC10460A4601469C
:1056BC003846A0427FF4FAAE9A426BDD8B4204DC92
:1056CC008A42B8BF0A46194612B22868CDF87080D3
:1056DC0084692846A446531C5B1A109A1BB213B05B
:1056EC00BDE8F04F6047A74238463EDD1C46099B9B
:1056FC0010930B461199119009912146D6E64B4611
:10570C00761AB6B237B207EBD777A1467F101C4694
:10571C00A4E74B46761AB6B237B207EBD777A14659
:10572C007F101C4630E7CDF800801BB24946029A28
:10573C002846A047ABE7CDF800801BB24946029A39
:10574C002846A04739E7029ACDF8048000922346F8
:10575C0049462846B8479AE7029ACDF80480009249
:10576C00234649462846B84727E71846109B119C04
:10577C0011930B4609990994109111460246104653
:10578C001A46119B109C109311940B46099C0146D0
:10579C0010988EE7184613468B42024690DD94E72C
:1057AC001446119A10921A46099B0990119323469C
:1057BC007CE613460022029307920CE7694D000821
:1057CC00094900082DE9F04F87B0BDF94040BDF8FC
:1057DC004860BDF944500196E61D48BF04F10E0621
:1057EC00F610002D04963CDD002C3ADD05930023C9
:1057FC00814680271FFA82F8661E45440093B6B294
:10580C00ABB2029103930136059B009A00249D18BC
:10581C000FFA88FB01E0B44218D0A1B244F3CC02D9
:10582C0001F00703AA5C47FA03F31A4204F10104DE
:10583C00F1D0029AD9F800301144D3F80CA009B277
:10584C00019B5A464846D047B442E6D1009B049A85
:10585C0008F1010813440093039B1FFA88F8434591
:10586C00D2D107B0BDE8F08F2DE9F04F9DB0BDF857
:10587C009C50B0F90C4013959DF8A0508C42BDF88B
:10588C0098B00B9540F3BF80B0F90E40944240F3B2
:10589C00BA8005EB450401EB4404002C40F3B380C3
:1058AC0002EBC504002C40F3AE8080460620199014
:1058BC00002003EB83031A938BB21793C24693B267
:1058CC0002461B93ABB215900D93052A00F087810D
:1058DC00A84B13441A9A9B5C0593BDF854200D9960
:1058EC001798189201FB02021B9B0B9912B20A9398
:1058FC0008930993083314929BB20A4403921093B1
:10590C00059BDB0740F1A3800B9B012BDAF80030E1
:10591C0000F04281BDF92C201C6A1192964A08981D
:10592C0094420FFA80F940F04D81149E03998E42F7
:10593C0048DA0D9A5C69013A024412B2104691455C
:10594C0011460792CEBF494601464A460E928A1A24
:10595C0092B2069212B20F9102EBD2728749521098
:10596C0012920A469442049120D11C69844A9442B2
:10597C0040F0F580079A914548D1344601E0DAF8B9
:10598C00003021460134DD684A465B46504624B25D
:10599C00A847A642F3DA0136039B36B29E4211DACF
:1059AC00DAF80030049A5C699442DED0119B3146DF
:1059BC00CDF800B04A465046A0470136039B36B29C
:1059CC009E42EDDB0A9B0D9801339BB219460A935C
:1059DC00099B1A46089B024403449BB20893059BFF
:1059EC0092B25B080593109B09921A468A4287D1A2
:1059FC00159A199B0132013B52B213F0FF03159219
:105A0C0019937FF462AF1DB0BDE8F08F0E9C0F9818
:105A1C008442C0DC129D37460C96804603E0A045BC
:105A2C0013DBDAF80030DE6822465B463946504616
:105A3C00B0470134002D24B2ABB2F0DA069A013F24
:105A4C009D18A0453FB22DB2EBDA0C9EA3E7139B39
:105A5C009B45B7D00B9B012BDAF8003000F0A780E8
:105A6C00BDF92C201C6A1292434A099894420FFAF1
:105A7C0080F940F0B080149E03998E42A2DA0D9A00
:105A8C005C69013A024412B21046914511460792E4
:105A9C00CEBF494601464A460F928A1A92B20692E6
:105AAC0012B20E9102EBD2723449521011920A4684
:105ABC0094420491CDF858B0DDF84C801FD11C698C
:105ACC002F4A94425ED1079A914527D1344601E082
